:020000040800F2
:1000000080070020C1010008C9010008CB010008D9
:10001000CD010008CF010008D10100080000000058
:10002000000000000000000000000000D3010008F4
:10003000D501000800000000D7010008D901000820
:10004000DB010008DB010008DB010008DB01000820
:10005000DB010008DB010008DB010008DB01000810
:10006000DB010008DB010008DB010008DB01000800
:10007000DB010008DB010008DB010008DB010008F0
:10008000DB010008DB010008DB010008DB010008E0
:10009000DB010008DB010008DB010008DB010008D0
:1000A000DB010008DB010008DB010008DB010008C0
:1000B000DB010008DB01000800000000DB01000894
:1000C000DB0100080000000000000000DB01000868
:1000D00000000000DB010008DB0100080000000058
:1000E000DB010008DB010008DB01000800F002F87A
:1000F00000F03CF80AA090E8000C82448344AAF186
:100100000107DA4501D100F031F8AFF2090EBAE883
:100110000F0013F0010F18BFFB1A43F0010318473B
:10012000B8040000D8040000103A24BF78C878C191
:10013000FAD8520724BF30C830C144BF04680C60ED
:10014000704700000023002400250026103A28BF35
:1001500078C1FBD8520728BF30C148BF0B60704739
:100160001FB500F062F81FBD10B510BD00F069F8B2
:100170001146FFF7F5FF00F02FF900F087F803B400
:10018000FFF7F2FF03BC00F091F800000B49D1F833
:1001900000C04A685CF8043B1068184442F8040B3D
:1001A0008C4528BFA1F1DC0C8A4228BFA1F1DC02FA
:1001B000C1F800C04A6020F00040704704010020F0
:1001C0000948804709480047FEE7FEE7FEE7FEE7EB
:1001D000FEE7FEE7FEE7FEE7FEE7FEE70448054927
:1001E000054A064B7047000081030008ED00000837
:1001F0008001002080070020800300208003002071
:100200000B4910B5A1F17C020A4CC2E93712372123
:1002100006E000EB104342F82130074B00FB03409F
:100220000B1EA1F10101F4DC10BD0120E8E7000084
:10023000A4000020E119D666CD0D0100704770477B
:100240007047754600F02CF8AE46050069465346E7
:1002500020F00700854618B020B5FFF7BFFFBDE8C6
:1002600020404FF000064FF000074FF000084FF01D
:10027000000BAC46ACE8C009ACE8C009ACE8C0096A
:10028000ACE8C00921F007018D46704710B504465F
:10029000AFF300802046BDE81040FFF770BF0000BC
:1002A000004870470C0100207047000001491820E9
:1002B000ABBEFEE72600020080B500F001F880BD6D
:1002C00082B041F204000021C4F2020001910091C9
:1002D00050F8041C41F4803140F8041C50F8041C10
:1002E00001F400310091019901310191009919B98E
:1002F0000199B1F5A06FF1D150F8041C890354BFE6
:100300000021012100910099012936D142F200011A
:10031000C4F202010A6842F010020A600A6822F080
:1003200003020A600A6842F002020A600168016082
:1003300001680160016841F480610160016821F495
:100340007C110160016841F4E811016050F8041C5F
:1003500041F0807140F8041C50F8041C8901FBD561
:10036000016821F003010160016841F002010160B0
:10037000016801F00C010829FAD102B070470000B1
:1003800080B541F20000C4F202000168002241F091
:10039000010101604168CFF6FF0211404160016830
:1003A0004FF6FF72CFF6F66211400160016821F44A
:1003B00080210160416821F4FE0141604FF41F017A
:1003C0008160FFF779FF4EF60850CEF200004FF043
:1003D0000061016080BD000041F21800C4F202001B
:1003E000016840F6004441F0080101600168C4F270
:1003F000010441F0040101604FF60040CFF6FF70A8
:10040000215844F2402B41F033312150215840F221
:100410006C1721F0CC312150206840F2701920F087
:1004200001002060206840F2781620F00200206071
:10043000206840F2741520F004002060206840F22B
:10044000060A40F00800206020684FF60C4820F0B3
:10045000100020602068C0F20F0B20F02000206008
:100460002068C2F2000720F0400020602068C2F23D
:10047000000940F08000C2F20006C2F20005C2F29C
:10048000000ACFF6FF782060FFF780FE46F2676132
:10049000C6F2666180FB0112911001EBD27101EB93
:1004A0008101A0EB41003860FFF770FE46F2676102
:1004B000C6F2666180FB0112911001EBD27101EB73
:1004C0008101A0EB4100C9F80000002030602860E5
:1004D00003E000BF2868072850D038683AF81000B9
:1004E00044F80800A068C00721D0D9F80000396896
:1004F000884215DD2968386001312960FFF746FE22
:1005000046F26761C6F2666180FB0112911001EB51
:10051000D27101EB8101A0EB4100C9F8000003E0BA
:1005200030680130306000BFA068C007FCD1A0680F
:100530008007CFD5D9F800003968884216DA2968D3
:10054000386001312960FFF721FE46F26761C6F28B
:10055000666180FB0112911001EBD27101EB810108
:10056000A0EB4100C9F8000004E000BF3068013092
:10057000306000BFA0688007FCD4ABE740F2000306
:100580000020C2F2000300BF33F810105A4600BF2B
:10059000013A44F80810FBD101300328F4D140F2AD
:1005A0001A030020C2F2000333F810105A4600BFAD
:1005B000013A44F80810FBD101300528F4D158461F
:1005C000296832680138A1EB02013AF8111044F8A9
:1005D0000810F5D158E70000F805000800000020D9
:1005E00024000000280100081C0600082800002044
:1005F000580700004401000806002B002100C0003D
:10060000F900A400B000990092008200F800800078
:0C06100090009200A700A300AF0086003D
:04000005080001C12D
:00000001FF
