:020000040800F2
:10000000680600208901000891010008930100089A
:100010009501000897010008990100080000000000
:100020000000000000000000000000009B0100082C
:100030009D010008000000009F010008A1010008C8
:10004000A3010008A3010008A3010008A301000800
:10005000A3010008A3010008A3010008A3010008F0
:10006000A3010008A3010008A3010008A3010008E0
:10007000A3010008A3010008A3010008A3010008D0
:10008000A3010008A3010008A3010008A3010008C0
:10009000A3010008A3010008A3010008A3010008B0
:1000A000A3010008A3010008A3010008A3010008A0
:1000B000A3010008A301000800000000A30100083C
:1000C000A30100080000000000000000A3010008D8
:1000D00000000000A3010008A301000800000000C8
:1000E000A3010008A3010008A301000800F002F822
:1000F00000F03AF80AA090E8000C82448344AAF188
:100100000107DA4501D100F02FF8AFF2090EBAE885
:100110000F0013F0010F18BFFB1A43F0010318473B
:100120004403000064030000103A24BF78C878C17B
:10013000FAD8520724BF30C830C144BF04680C60ED
:10014000704700000023002400250026103A28BF35
:1001500078C1FBD8520728BF30C148BF0B60704739
:100160001FB51FBD10B510BD00F031F81146FFF7E7
:10017000F7FF00F0F7F800F04FF803B4FFF7F2FFD5
:1001800003BC00F057F800000948804709480047C1
:10019000FEE7FEE7FEE7FEE7FEE7FEE7FEE7FEE737
:1001A000FEE7FEE704480549054A064B7047000094
:1001B0000D030008ED00000868000020680600201C
:1001C000680200206802002070477047704775463B
:1001D00000F02CF8AE4605006946534620F00700B3
:1001E000854618B020B5FFF7DDFFBDE820404FF091
:1001F00000064FF000074FF000084FF0000BAC4630
:10020000ACE8C009ACE8C009ACE8C009ACE8C0097A
:1002100021F007018D46704710B50446AFF300800A
:100220002046BDE81040FFF7A8BF00000048704717
:100230000800002001491820ABBEFEE7260002009E
:100240007047000080B500F001F880BD82B041F237
:1002500004000021C4F202000191009150F8041C36
:1002600041F4803140F8041C50F8041C01F40031C2
:100270000091019901310191009919B90199B1F5E4
:10028000A06FF1D150F8041C890354BF0021012153
:1002900000910099012936D142F20001C4F2020115
:1002A0000A6842F010020A600A6822F003020A603B
:1002B0000A6842F002020A60016801600168016098
:1002C000016841F480610160016821F47C110160E2
:1002D000016841F4E811016050F8041C41F080719C
:1002E00040F8041C50F8041C8901FBD5016821F07A
:1002F00003010160016841F002010160016801F041
:100300000C010829FAD102B07047000080B541F213
:100310000000C4F202000168002241F00101016006
:100320004168CFF6FF021140416001684FF6FF724D
:10033000CFF6F66211400160016821F4802101606E
:10034000416821F4FE0141604FF41F018160FFF715
:1003500079FF4EF60850CEF200004FF000610160C8
:1003600080BD000041F21801C4F202010A6840F6A3
:10037000000042F00402C4F201000A600168012298
:1003800041F003010160016821F00401016001688E
:1003900041F030010160016821F040010160016815
:1003A00041F440710160016821F4806101600168DD
:1003B00041F440510160016821F480410160002155
:1003C000C36802FA01F501312B430429C360F7D158
:1003D00040F2000147F6EF6E0023C2F20001012255
:1003E0004CF2503CC0F20E0E0BE000BF0B6803EB6A
:1003F0000C047345C4BF48F2A064C0F201040C6051
:1004000000230C68012C0ADB02FA03F4E443002504
:10041000C66801352640C6600E68B542F8DBC46880
:1004200002FA03F501332C43042BC460E9D1022303
:1004300009E000BFC46802FA03F52C43002BA3F1C6
:100440000103C460D2D00C68012CF3DB02FA03F480
:10045000E4430025C66801352640C6600E68B542F3
:10046000F8DBE7E784040008000000200400000037
:100470002801000888040008080000206006000029
:080480004401000810270000F0
:040000050800018965
:00000001FF
